:020000040800F2
:100000000000022025130008E5070008E7070008A4
:10001000E9070008EB070008ED07000800000000F2
:10002000000000000000000000000000EF070008D2
:10003000F107000800000000F3070008F5070008BA
:100040007513000875130008751300087513000870
:100050007513000875130008751300087513000860
:100060007513000875130008751300087513000850
:100070007513000875130008751300087513000840
:1000800075130008751300087513000800000000C0
:1000900000000000000000000000000075130008D0
:1000A0007513000875130008751300087513000810
:1000B0007513000875130008751300087513000800
:1000C00075130008751300087513000875130008F0
:1000D0007513000875130008751300080000000070
:1000E0007513000875130008751300080000000060
:1000F0000000000000000000000000007513000870
:10010000000000007513000875130008751300083F
:1001100000000000000000000000000000000000DF
:10012000751300087513000875130008751300088F
:10013000751300080000000000000000000000002F
:10014000000000000000000000000000751300081F
:10015000751300087513000875130008751300085F
:10016000751300087513000800000000000000006F
:10017000000000000000000000000000000000007F
:1001800000000000751300080000000000000000DF
:08019000751300087513000847
:1001980010B5054C237833B9044B13B10448AFF3B9
:1001A80000800123237010BD0C0000200000000017
:1001B800D013000808B5034B1BB103490348AFF33C
:1001C800008008BD0000000010000020D0130008C7
:1001D80053B94AB9002908BF00281CBF4FF0FF31A6
:1001E8004FF0FF3000F070B9ADF1080C6DE904CEA6
:1001F80000F006F8DDF804E0DDE9022304B07047FA
:100208002DE9F047089E0D4604460F46002B4AD1BB
:100218008A42944665D9B2FA82F343B102FA03FCE2
:10022800C3F120029F4020FA02F217439C404FEA94
:100238001C4E1FFA8CF5B7FBFEF1220C0EFB117752
:1002480042EA074201FB05F090420AD91CEB020280
:1002580001F1FF3780F01C81904240F21981023988
:100268006244121AA4B2B2FBFEF00EFB102244EA5A
:10027800024400FB05F5A5420AD91CEB040400F171
:10028800FF3280F00781A54240F2048164440238BD
:1002980040EA0140641B00211EB1DC400023C6E98E
:1002A8000043BDE8F0878B4208D9002E00F0ED80AE
:1002B8000021C6E900050846BDE8F087B3FA83F1D6
:1002C800002949D1AB4202D3824200F2F880841A55
:1002D80065EB030201201746002EE2D0C6E900476D
:1002E800DFE702B9FFDEB2FA82F3002B40F090801C
:1002F8008A1A4FEA1C471FFA8CFE0121B2FBF7F558
:1003080007FB1520220C42EA00420EFB05F0904242
:1003180008D91CEB020205F1FF3802D2904200F224
:10032800CB804546121AA4B2B2FBF7F007FB1022A5
:1003380044EA02440EFB00FEA64508D91CEB04045F
:1003480000F1FF3202D2A64500F2BB801046A4EBB2
:100358000E0440EA05409FE7C1F120078B4022FACE
:1003680007FC4CEA030C05FA01F420FA07F3FD40F8
:100378004FEA1C492343B5FBF9F81FFA8CFE09FB29
:1003880018551C0C44EA054408FB0EF5A54202FA70
:1003980001F200FA01F00BD91CEB040408F1FF3A52
:1003A80080F08880A54240F28580A8F10208644464
:1003B800641B9DB2B4FBF9F309FB134445EA0444FA
:1003C80003FB0EFEA64508D91CEB040403F1FF3518
:1003D8006CD2A6456AD9023B644443EA0843A3FBAE
:1003E8000295A4EB0E04AC42C846AE4656D353D091
:1003F80056B1B0EB080264EB0E0404FA07F7CA40E2
:10040800CC401743C6E9007418460021BDE8F087C0
:10041800C3F1200102FA03FC20FA01F225FA01F1E6
:100428009D402A434FEA1C471FFA8CFEB1FBF7F0A8
:1004380007FB1015110C41EA054100FB0EF58D4232
:1004480004FA03F408D91CEB010100F1FF382FD29C
:100458008D422DD902386144491B92B2B1FBF7F5A0
:1004680007FB151142EA014205FB0EF1914208D93A
:100478001CEB020205F1FF3816D2914214D9023D55
:100488006244521A45EA004138E73146304608E7E7
:100498003946E6E61046FBE64845A9D2B9EB02081C
:1004A80065EB0C0E013BA3E74546EAE72B4694E7CC
:1004B8004046D1E7D0467BE7023D624432E7084632
:1004C8000AE76444023842E7704700BF2DE9F04F5D
:1004D8008DB000240794089409940A940B9401940D
:1004E800754B1A6B42F010021A631A6B02F0100275
:1004F8000192019A02941A6B42F004021A631A6B71
:1005080002F004020292029A03941A6B42F08002EB
:100518001A631A6B02F080020392039A04941A6B0E
:1005280042F001021A631A6B02F001020492049A63
:1005380005941A6B42F002021A631A6B02F0020267
:100548000592059A06941A6B42F008021A631B6B0F
:1005580003F008030693069B584E224608213046AE
:1005680000F09EFDDFF85C8101221146404600F054
:1005780097FDDFF8549122464FF21001484600F0EB
:100588008FFD042307930894099407A9304600F0C7
:10059800A3FC4FF0080ACDF81CA001250895099482
:1005A8000A9407A9304600F097FC322307934FF4CA
:1005B80090170897099407A9304600F08DFC079515
:1005C800089509940A9407A9404600F085FCCDF8DF
:1005D8001CA00226089609940A944FF0050ACDF843
:1005E8002CA007A9404600F077FC079508970994C6
:1005F800334F07A9384600F06FFC1023079308967D
:1006080009940A944FF0060BCDF82CB007A9384688
:1006180000F062FC4FF4A0530793089609940A94DB
:10062800CDF82CA0DFF8A4A007A9504600F054FC90
:100638004FF210030793089509940A9407A94846AE
:1006480000F04AFC4FF4A4530793089609940A94BF
:10065800CDF82CB007A9404600F03EFC4FF40073DB
:1006680007930894099407A9384600F035FC4FF41D
:10067800E05307930896099403230A930A230B93DC
:1006880007A9384600F028FC20230793089409940A
:1006980007A9484600F020FC4FF410730793122373
:1006A800089309950A9404230B9307A9504600F070
:1006B80013FC0DB0BDE8F08F003802400010024076
:1006C8000000024000080240000C02400004024002
:1006D80072B6FEE708B50D480D4B03604FF4827300
:1006E800436000238360C360036143614FF4007279
:1006F8008261C3610362436283620A23C36200F0BA
:10070800A3FD00B908BDFFF7E3FF00BF28000020E4
:100718000030014000B595B03022002108A800F053
:1007280026FE0023039304930593069307930193EE
:100738001E4A116C41F080511164126C02F0805213
:100748000192019A02931A4A116841F440411160DA
:10075800126802F440420292029A0222089201218F
:100768000B9110210C910E920F93082310934023A4
:10077800119312920423139308A800F093F888B9F0
:100788000F23039302230493A02305934FF4A0534C
:1007980006930021079103A800F0EEFA20B915B0DE
:1007A8005DF804FBFFF794FFFFF792FF0038024063
:1007B8000070004008B500F007FDFFF7ABFFFFF73A
:1007C80085FEFFF787FF4FF48051034800F06EFC69
:1007D800C82000F025FDF6E7000C0240FEE7FEE722
:1007E800FEE7FEE7FEE770477047704708B500F080
:1007F80005FD08BD00B583B0002100910C4B5A6C73
:1008080042F480425A645A6C02F480420092009A80
:1008180001911A6C42F080521A641B6C03F08053E9
:100828000193019B072000F04BFC03B05DF804FB2B
:100838000038024000B589B0002303930493059360
:10084800069307930268154B9A4202D009B05DF8E7
:1008580004FB0021019103F584335A6C42F4805261
:100868005A645A6C02F480520192019A02911A6BEE
:1008780042F001021A631B6B03F001030293029B0F
:10088800E02303930223049303230693052307938A
:1008980003A9034800F020FBD8E700BF003001405F
:1008A80000000240002800F0E08170B582B00446E4
:1008B800036813F0010F3BD09F4B9B6803F00C03B8
:1008C800042B2CD09C4B9B6803F00C03082B21D0E5
:1008D8006368B3F5803F4FD0B3F5A02F52D0964B45
:1008E8001A6822F480321A601A6822F480221A6088
:1008F8006368002B50D000F08DFC05468E4B1B68BA
:1009080013F4003F14D100F085FC401B6428F5D98E
:100918000320B1E1884B5B6813F4800FD8D0864B75
:100928001B6813F4003F03D06368002B00F09F811D
:10093800236813F0020F54D07F4B9B6813F00C0F01
:100948003ED07D4B9B6803F00C03082B33D0E36843
:10095800002B68D0794B01221A6000F05BFC054639
:10096800754B1B6813F0020F54D100F053FC401B69
:100978000228F5D903207FE16F4A136843F48033D6
:100988001360B5E76C4B1A6842F480221A601A6843
:1009980042F480321A60ABE700F03CFC0546664B37
:1009A8001B6813F4003FC3D000F034FC401B6428DC
:1009B800F5D9032060E1604B5B6813F4800FC6D162
:1009C8005D4B1B6813F0020F03D0E368012B40F066
:1009D8005081594A136823F0F803216943EAC10397
:1009E8001360236813F0080F42D063696BB3534B4D
:1009F8000122C3F8802E00F00DFC05464E4B5B6FBC
:100A080013F0020F34D100F005FC401B0228F5D981
:100A1800032031E1484A136823F0F803216943EAC7
:100A2800C1031360DDE7454B00221A6000F0F2FBBA
:100A38000546414B1B6813F0020FD2D000F0EAFBC9
:100A4800401B0228F5D9032016E13C4B0022C3F8CD
:100A5800802E00F0DFFB0546374B5B6F13F0020F6B
:100A680006D000F0D7FB401B0228F5D9032003E18C
:100A7800236813F0040F77D02F4B1B6C13F0805FA3
:100A880033D1002301932C4B1A6C42F080521A6424
:100A98001B6C03F080530193019B0125284B1B68B5
:100AA80013F4807F23D0A368012B34D0052B38D0D2
:100AB800214B1A6F22F001021A671A6F22F0040202
:100AC8001A67A368002B3DD000F0A4FB06461A4B1A
:100AD8001B6F13F0020F46D100F09CFB801B41F204
:100AE80088339842F3D90320C6E00025D6E7144A94
:100AF800136843F48073136000F08CFB0646104BB8
:100B08001B6813F4807FCED100F084FB801B022881
:100B1800F5D90320B0E0084A136F43F001031367C7
:100B2800CFE7054B1A6F42F004021A671A6F42F0BA
:100B380001021A67C5E700BF0038024000004742BB
:100B48000070004000F066FB0646524B1B6F13F026
:100B5800020F08D000F05EFB801B41F288339842F8
:100B6800F3D9032088E0EDB9A369002B00F0838056
:100B7800484A926802F00C02082A51D0022B17D07A
:100B8800454B00221A6600F045FB0446414B1B68A2
:100B980013F0007F42D000F03DFB001B0228F5D97E
:100BA800032069E03B4A136C23F080531364DBE7AE
:100BB800394B00221A6600F02DFB0546354B1B68A1
:100BC80013F0007F06D000F025FB401B0228F5D962
:100BD800032051E0E369226A1343626A43EA8213FD
:100BE800A26A5208013A43EA0243E26A43EA02630C
:100BF800284A5360284B01221A6600F00BFB044672
:100C0800244B1B6813F0007F06D100F003FB001B88
:100C18000228F5D903202FE000202DE000202BE04A
:100C2800012B2BD01B4B5B6803F48001E2699142D6
:100C380026D103F03F02216A8A4223D1616A47F62E
:100C4800C0721A40B2EB811F1ED103F44031A26A70
:100C58005208013AB1EB024F18D103F07063E26A0F
:100C6800B3EB026F14D1002006E001207047012089
:100C780002E0012000E0002002B070BD0120FBE787
:100C88000120F9E70120F7E70120F5E70120F3E764
:100C98000120F1E7003802400000474208B5334B15
:100CA8009B6803F00C03042B5BD0082B5BD12F4B04
:100CB8005A6802F03F025B6813F4800F2CD02B4B6C
:100CC8005868C0F388104FEA401CBCEB000C6EEB70
:100CD8000E0E4FEA8E1343EA9C634FEA8C11B1EB78
:100CE8000C0163EB0E03DB0043EA5173C90011EBFF
:100CF800000C43F10003590200234FEA4C2041EA5B
:100D0800DC51FFF765FA194B5B68C3F30143013304
:100D18005B00B0FBF3F027E0144B5868C0F3881071
:100D28004FEA401CBCEB000C6EEB0E0E4FEA8E1324
:100D380043EA9C634FEA8C11B1EB0C0163EB0E03A1
:100D4800DB0043EA5173C90011EB000C43F10003C7
:100D5800990200234FEA8C2041EA9C51FFF738FAA8
:100D6800D1E7034800E0034808BD00BF003802404F
:100D780000127A000024F400002800F09B8070B56F
:100D88000D4604464F4B1B6803F007038B4208D2FD
:100D9800CBB24C4A1370136803F007038B4240F040
:100DA8008B80236813F0020F17D013F0040F04D0C0
:100DB800454A936843F4E0539360236813F0080F9F
:100DC80004D0414A936843F4604393603E4A936871
:100DD80023F0F003A1680B439360236813F0010F1D
:100DE80032D06368012B21D09A1E012A25D9364AB0
:100DF800126812F0020F61D033498A6822F00302A8
:100E080013438B6000F006FA06462F4B9B6803F0ED
:100E18000C036268B3EB820F16D000F0FBF9801B5D
:100E280041F288339842F0D9032042E0264A1268FA
:100E380012F4003FE0D101203BE0234A126812F08F
:100E4800007FD9D1012034E01E4B1B6803F0070353
:100E5800AB4207D9EAB21B4B1A701B6803F00703B1
:100E6800AB422DD1236813F0040F06D0164A9368BD
:100E780023F4E053E1680B439360236813F0080FF1
:100E880007D0114A936823F46043216943EAC103F8
:100E98009360FFF703FF0C4B9B68C3F303130B4AE4
:100EA800D35CD8400A4B18600A4B186800F066F902
:100EB800002070BD012070470120FAE70120F8E703
:100EC8000120F6E7003C024000380240E813000821
:100ED800080000200400002000230F2B00F2D78018
:100EE80070B582B065E085684FEA430E032404FAC2
:100EF8000EF425EA0405CC6804FA0EF42C43846049
:100F0800446824EA02044A68C2F300129A40224361
:100F180042605CE0DC08083450F8242003F0070540
:100F2800AD004FF00F0E0EFA05FE22EA0E0E0A690A
:100F3800AA4042EA0E0240F824205CE0042200E0C5
:100F4800002202FA0EF22A430234514D45F82420B9
:100F5800504A94686FEA0C0224EA0C054E6816F4AD
:100F6800801F01D04CEA04054A4CA560E46802EAF7
:100F780004054E6816F4001F01D04CEA0405454CE0
:100F8800E560646802EA04054E6816F4003F01D083
:100F98004CEA04053F4C6560246822404D6815F40E
:100FA800803F01D04CEA04023A4C226001330F2BF7
:100FB8006BD801229A400C6804EA020C32EA040455
:100FC800F4D14C6804F00304013C012C8BD94A6825
:100FD80002F00302032A09D0C4685D000322AA4074
:100FE80024EA02048A68AA402243C2604A6802F0DE
:100FF8000302022A8ED004684FEA430E032202FA43
:101008000EF224EA02044A6802F0030202FA0EF21F
:10101800224302604A6812F4403FC7D0002201927E
:101028001D4A546C44F480445464526C02F4804267
:101038000192019A9C08A51C154A52F8255003F004
:10104800030E4FEA8E0E0F2202FA0EF225EA02056F
:10105800124A90423FF474AF02F5806290420ED07B
:1010680002F5806290420CD002F5806290420AD06C
:1010780002F5806290423FF461AF072261E70122E6
:101088005FE702225DE703225BE702B070BD7047AD
:1010980000380140003C0140003802400000024096
:1010A8000AB181617047090481617047436901EAA7
:1010B800030221EA030141EA02418161704700000D
:1010C800074AD36823F4E0631B041B0C000200F4F6
:1010D800E060034343F0BF6343F40033D3607047D9
:1010E80000ED00E000B5194BDB68C3F30223C3F140
:1010F800070CBCF1040F28BF4FF0040C03F1040ED9
:10110800BEF1060F18D9033B4FF0FF3E0EFA0CFC58
:1011180021EA0C0199400EFA03FE22EA0E020A4364
:1011280000280BDB1201D2B200F1604000F56140EB
:1011380080F800235DF804FB0023E5E700F00F00CA
:101148001201D2B2024B1A54F4E700BF00ED00E0DE
:1011580014ED00E00138B0F1807F0BD24FF0E023AE
:101168005861054AF02182F823100020986107226F
:101178001A6170470120704700ED00E010B5044681
:101188000E4B1A784FF47A73B3FBF2F30C4A1068DB
:10119800B0FBF3F0FFF7DEFF68B90F2C01D901208F
:1011A8000AE0002221464FF0FF30FFF79BFF054B76
:1011B8001C60002000E0012010BD00BF00000020DE
:1011C800080000200400002008B50B4B1A6842F400
:1011D80000721A601A6842F480621A601A6842F44F
:1011E80080721A600320FFF76BFF0020FFF7C6FF2D
:1011F800FFF700FB002008BD003C0240034A1168CD
:10120800034B1B780B441360704700BF800000201D
:1012180000000020014B1868704700BF80000020C4
:1012280038B50446FFF7F6FF0546B4F1FF3F02D094
:10123800044B1B781C44FFF7EDFF401BA042FAD378
:1012480038BD00BF0000002000285AD010B5044661
:10125800436A33B94368B3F5827F05D00023C3617D
:1012680002E00023036143610023A36294F8513034
:10127800002B40D0022384F851302268136823F0F1
:1012880040031360636803F48273A26802F40442A3
:101298001343E26802F400621343226902F0020277
:1012A8001343626902F001021343A26902F4007257
:1012B8001343E26902F038021343226A02F0800203
:1012C8001343A26A02F40052216813430B60638B34
:1012D80003F00403626A02F01002216813434B60B2
:1012E8002268D36923F40063D36100206065012379
:1012F80084F8513010BD84F850302046FFF79AFA30
:10130800B8E7012070470000034AD2F8883043F458
:101318007003C2F88830704700ED00E0DFF834D081
:101328000D480E490E4A002302E0D458C450043335
:10133800C4188C42F9D30B4A0B4C002301E013600C
:101348000432A242FBD3FFF7DFFF00F019F8FFF7E2
:1013580031FA704700000220000000200C00002035
:10136800081400080C00002084000020FEE7024456
:101378000346934200D1704703F8011BF9E70000C8
:1013880070B50D4D0D4C641BA4100026A64209D162
:101398000B4D0C4C00F018F8641BA4100026A64254
:1013A80005D170BD55F8043B98470136EEE755F86E
:1013B800043B98470136F2E70014000800140008BF
:1013C8000014000804140008F8B500BFF8BC08BCF5
:1013D8009E467047F8B500BFF8BC08BC9E467047EB
:1013E80000000000000000000102030406070809CD
:0813F80010EEFF7F0100000070
:04140000BD01000822
:041404009901000842
:0C14080001000000100000000024F400AF
:0400000508001325B7
:00000001FF
